:100000000C9434000C9451000C9451000C94510049
:100010000C9451000C9451000C9451000C9451001C
:100020000C9451000C9451000C9451000C9451000C
:100030000C9451000C9451000C9451000C945100FC
:100040000C9451000C9451000C9451000C945100EC
:100050000C9451000C9451000C9451000C945100DC
:100060000C9471030C94510011241FBECFEFD8E003
:10007000DEBFCDBF11E0A0E0B1E0EEE0FEE002C0E7
:1000800005900D92A83BB107D9F721E0A8EBB1E0AC
:1000900001C01D92A13FB207E1F70E9405040C9434
:1000A00005070C940000E0910001F0910101158218
:1000B00087E6848388E1818386E082830895E091E6
:1000C0000001F0910101908195FFFDCF8683089595
:1000D000E0910001F0910101808187FFFDCF8681D1
:1000E0000895EF92FF920F931F93CF93DF9300D069
:1000F00000D000D0CDB7DEB7009741F09E012F5F52
:100100003F4F7901F9012AE030E00FC080E32696E5
:100110000FB6F894DEBF0FBECDBFDF91CF911F9118
:100120000F91FF90EF900C945F008F010E191F0943
:10013000181619063CF4B9010E949B04805D819356
:10014000CB01F3CF0E0D1F1D0E151F0531F0F80169
:1001500082918F010E945F00F7CF26960FB6F89428
:10016000DEBF0FBECDBFDF91CF911F910F91FF90EA
:10017000EF900895CF93DF93EC018991882319F0D4
:100180000E945F00FACFDF91CF910895CF936AE08C
:100190000E948F04C92F805D0E945F0080E38C0F56
:1001A000CF910C945F008F929F92AF92BF92CF92AB
:1001B000DF92EF92FF926B017C0120E030E0A90119
:1001C0000E94300587FF07C08DE20E945F00F7FAAA
:1001D000F094F7F8F094C701B6010E94A7054B010F
:1001E0005C010E94DF059B01AC01C701B6010E94C2
:1001F000C30420E030E048EC52E40E948F060E94E5
:10020000A7056B017C01C4010E9471008EE20E946F
:100210005F008AE0C816D104E104F1041CF480E315
:100220000E945F00C6010E9471008AE0FF90EF907B
:10023000DF90CF90BF90AF909F908F900C945F0015
:10024000DB018C91E5EEF1E0808311968C911197A2
:10025000818312968C9182830895E5EEF1E0DB01B3
:100260008D91BD018193B1E0EB3EFB07C1F708958D
:10027000FC01AC014E5F5F4F8FEF91E3219182272C
:1002800028E030E087FF03C0880F892701C0880F6E
:1002900021503109B9F7E417F50781F70895CF9395
:1002A000DF9300D0CDB7DEB783EF89838DE28A83F9
:1002B00020E030E042E0BE016F5F7F4F84E40E94A7
:1002C0002A0340E251E063E084E40E9453038091FA
:1002D000E5019091E6019827892798270F900F90C4
:1002E000DF91CF910895CF93DF9300D0CDB7DEB7E4
:1002F00080E3898382EA8A8320E030E042E0BE0125
:100300006F5F7F4F84E40E942A038FE39CE901978B
:10031000F1F700C000000F900F90DF91CF9108958A
:100320000E9473010E944F0121E030E0019611F418
:1003300020E030E0C9010895CF93DF9300D0CDB71E
:10034000DEB780E3898381E48A8320E030E042E005
:10035000BE016F5F7F4F84E40E942A038FE39CE914
:100360000197F1F700C000000F900F90DF91CF913F
:100370000895CF93DF9300D0CDB7DEB7892B11F46A
:1003800086E601C08DE690E399838A8320E030E021
:1003900042E0BE016F5F7F4F84E40E942A038FE931
:1003A0009FE00197F1F700C0000081E090E00F901E
:1003B0000F90DF91CF9108950F931F93CF93DF9309
:1003C00000D0CDB7DEB784E289831A8220E030E026
:1003D00042E0BE016F5F7F4F84E40E942A032FEF4B
:1003E00089EF90E0215080409040E1F700C000008C
:1003F0004DE251E066E084E40E9453038FE39FE105
:100400000197F1F700C00000E5EEF1E0ABEEB1E0DE
:100410008BEE91E021912D938E179F07D9F78BEEEC
:1004200091E00E9438019091ED0189134FC08EEE4A
:1004300091E00E9438019091F001891347C06091CA
:10044000EE017091EF01162F072F6091EB01709173
:10045000EC0176276727762780E090E00E94DD0593
:1004600020E03FEF4FE757E40E94350520E030E001
:100470004FE253E40E948F0620E030E044E352E470
:100480000E94C3046093BC017093BD018093BE01C0
:100490009093BF01B80180E090E00E94DD0520E06C
:1004A0003FEF4FE757E40E94350520E030E048EC8D
:1004B00052E40E948F066093B8017093B901809353
:1004C000BA019093BB0181E090E002C080E090E02F
:1004D0000F900F90DF91CF911F910F9108950F937F
:1004E0001F93CF93DF938C01EB010E94DC010097F7
:1004F00071F440E050E060EC7FE7F8014083518305
:1005000062837383488359836A837B831BC0809192
:10051000BC019091BD01A091BE01B091BF01F80155
:1005200080839183A283B3838091B8019091B901B4
:10053000A091BA01B091BB0188839983AA83BB8340
:1005400081E090E0DF91CF911F910F9108950E947B
:10055000DC01892B49F06091BC017091BD01809153
:10056000BE019091BF01089560E070E080EC9FE7CC
:1005700008950E94DC01892B49F06091B8017091C7
:10058000B9018091BA019091BB01089560E070E0DB
:1005900080EC9FE708950E944F01892F992782954B
:1005A0008695877081709927089588E48093B800B4
:1005B0001092B9001092E401789484E08093BC001A
:1005C00008958091E4018111FCCF81EC91E00895C0
:1005D00085EA8093BC00089584E98093BC00089567
:1005E00085EC8093BC00089585E88093BC00089555
:1005F0008093BB000895A0ECB1E09196EC919197A7
:1006000081E08E0F91968C938091BB00F0E0E054D6
:10061000FE4F808308952091E10130E08091E00158
:1006200090E001972817390714F485EC01C085E89C
:100630008093BC0008958091C00186951092E401DA
:10064000E091E201F091E301309719F061EC71E083
:1006500009940895EF92FF920F931F93CF93DF9326
:10066000D82F8B01C42F79010E94E10281E0809391
:10067000E401E0ECF1E0DD0FD0838C0F80A311A248
:10068000F3A2E2A24C2F50E0B80181EC91E00E946D
:10069000FC0685EA8093BC00DF91CF911F910F91FA
:1006A000FF90EF9008950F931F93CF93DF93C82F80
:1006B000D62F8A010E94E10281E08093E401E0EC00
:1006C000F1E0CC0FC160C083DF5FD0A311A213A300
:1006D00002A385EA8093BC00DF91CF911F910F9117
:1006E00008951F920F920FB60F9211242F933F93EC
:1006F0004F935F936F937F938F939F93AF93BF932A
:10070000EF93FF938091B900887F883279F038F4B5
:10071000803161F0883151F0883019F507C080359B
:10072000C9F08835E1F08034E1F416C0E091E101D0
:100730008091E001E817A8F481E08E0F8093E10139
:10074000F0E0E054FE4F80818093BB0085E8809309
:10075000BC000CC00E94FB020E940B0307C00E9459
:10076000FB0284E98093BC000E941B03FF91EF9180
:10077000BF91AF919F918F917F916F915F914F91B9
:100780003F912F910F900FBE0F901F901895CF9310
:10079000DF9300D000D0CDB7DEB719821A821B825A
:1007A0001C8289819A81AB81BC81803D9D4DA64090
:1007B000B10560F489819A81AB81BC810196A11D4C
:1007C000B11D89839A83AB83BC83EBCF0F900F90CD
:1007D0000F900F90DF91CF910895E0910401F09177
:1007E00005018081806280830895E0910601F09187
:1007F00007018081806280830895E0910601F09175
:10080000070180818F7D80830895CF93DF93CDB7DB
:10081000DEB728970FB6F894DEBF0FBECDBF0E949B
:1008200053000E94D5022FEF83E294EF21508040C5
:100830009040E1F700C0000088E091E00E94BA001B
:100840000E949001892B91F482E291E00E94BA000B
:1008500081E491E00E94BA002FEF83ED90E32150F4
:1008600080409040E1F700C00000F2CF83E491E0C7
:100870000E94BA00E12CF12C00E010E0BE016F5F95
:100880007F4FCE0105960E946F02892BD9F088E632
:1008900091E00E94BA006D817E818F8198850E94CF
:1008A000D30085E691E00E94BA0082E791E00E94C1
:1008B000BA0069817A818B819C810E94D30083E692
:1008C00091E002C08BE791E00E94BA002FEF83ED28
:1008D00090E3215080409040E1F700C000000E31CD
:1008E0001105D4F081E0EF2809F080E0E82EF12C2A
:1008F000C7010E94B90183E991E00E94BA000E94F9
:10090000CB02892B19F082EA91E002C08CEA91E0D7
:100910000E94BA0000E010E00F5F1F4FAFCF991B9D
:1009200079E004C0991F961708F0961B881F7A95E6
:10093000C9F78095089597FB072E16F4009407D009
:1009400077FD09D00E94AF0407FC05D03EF49095D6
:1009500081959F4F0895709561957F4F0895AA1BCB
:10096000BB1B51E107C0AA1FBB1FA617B70710F09A
:10097000A61BB70B881F991F5A95A9F780959095CC
:10098000BC01CD0108955058BB27AA270E94DB0463
:100990000C9455060E94470638F00E944E0620F03F
:1009A00039F49F3F19F426F40C9444060EF4E095B4
:1009B000E7FB0C943E06E92F0E94660658F3BA172F
:1009C000620773078407950720F079F4A6F50C9465
:1009D00088060EF4E0950B2EBA2FA02D0B01B9015D
:1009E00090010C01CA01A0011124FF27591B99F0A5
:1009F000593F50F4503E68F11A16F040A22F232FB1
:100A0000342F4427585FF3CF469537952795A79500
:100A1000F0405395C9F77EF41F16BA0B620B730BA7
:100A2000840BBAF09150A1F0FF0FBB1F661F771F18
:100A3000881FC2F70EC0BA0F621F731F841F48F4CD
:100A4000879577956795B795F7959E3F08F0B0CF56
:100A50009395880F08F09927EE0F9795879508953D
:100A60000E941A0608F481E008950E9449050C943A
:100A700055060E944E0658F00E94470640F029F4A1
:100A80005F3F29F00C943E0651110C9489060C949A
:100A900044060E94660668F39923B1F3552391F347
:100AA000951B550BBB27AA2762177307840738F0DD
:100AB0009F5F5F4F220F331F441FAA1FA9F335D03A
:100AC0000E2E3AF0E0E832D091505040E695001CEE
:100AD000CAF72BD0FE2F29D0660F771F881FBB1FA8
:100AE000261737074807AB07B0E809F0BB0B802D86
:100AF000BF01FF2793585F4F3AF09E3F510578F0B2
:100B00000C943E060C9489065F3FE4F3983ED4F3C0
:100B1000869577956795B795F7959F5FC9F7880F85
:100B2000911D9695879597F90895E1E0660F771FD7
:100B3000881FBB1F621773078407BA0720F0621B68
:100B4000730B840BBA0BEE1F88F7E09508950E9493
:100B5000AE056894B1110C94890608950E946E0642
:100B600088F09F5798F0B92F9927B751B0F0E1F06E
:100B7000660F771F881F991F1AF0BA95C9F714C01E
:100B8000B13091F00E948806B1E008950C94880677
:100B9000672F782F8827B85F39F0B93FCCF3869557
:100BA00077956795B395D9F73EF4909580957095B4
:100BB00061957F4F8F4F9F4F0895E89409C097FB31
:100BC0003EF490958095709561957F4F8F4F9F4F24
:100BD0009923A9F0F92F96E9BB279395F695879568
:100BE00077956795B795F111F8CFFAF4BB0F11F42B
:100BF00060FF1BC06F5F7F4F8F4F9F4F16C08823D2
:100C000011F096E911C0772321F09EE8872F762F07
:100C100005C0662371F096E8862F70E060E02AF048
:100C20009A95660F771F881FDAF7880F9695879534
:100C300097F90895990F0008550FAA0BE0E8FEEF09
:100C400016161706E807F907C0F012161306E40790
:100C5000F50798F0621B730B840B950B39F40A2689
:100C600061F0232B242B252B21F408950A2609F467
:100C7000A140A6958FEF811D811D089597F99F676B
:100C800080E870E060E008959FEF80EC0895002414
:100C90000A941616170618060906089500240A94E1
:100CA00012161306140605060895092E0394000C67
:100CB00011F4882352F0BB0F40F4BF2B11F460FFF6
:100CC00004C06F5F7F4F8F4F9F4F089557FD90581F
:100CD000440F551F59F05F3F71F04795880F97FB00
:100CE000991F61F09F3F79F08795089512161306BA
:100CF0001406551FF2CF4695F1DF08C016161706E9
:100D00001806991FF1CF869571056105089408951D
:100D1000E894BB2766277727CB0197F908950E94AF
:100D2000A2060C9455060E94470638F00E944E0613
:100D300020F0952311F00C943E060C9444061124E7
:100D40000C9489060E94660670F3959FC1F3950F77
:100D500050E0551F629FF001729FBB27F00DB11D3F
:100D6000639FAA27F00DB11DAA1F649F6627B00DCF
:100D7000A11D661F829F2227B00DA11D621F739FB8
:100D8000B00DA11D621F839FA00D611D221F749FC6
:100D90003327A00D611D231F849F600D211D822F0D
:100DA000762F6A2F11249F5750409AF0F1F0882334
:100DB0004AF0EE0FFF1FBB1F661F771F881F915061
:100DC0005040A9F79E3F510580F00C943E060C94CC
:100DD00089065F3FE4F3983ED4F38695779567954F
:100DE000B795F795E7959F5FC1F7FE2B880F911D8B
:100DF0009695879597F90895FB01DC0102C0019053
:0E0E00000D9241505040D8F70895F894FFCF5E
:100E0E00C0002300240025003D3D3D2053485433AF
:100E1E003120496E696369616E646F203D3D3D0D01
:100E2E000A004552524F523A2053656E736F72202C
:100E3E006E6F20656E636F6E747261646F210D0A42
:100E4E00002E0053656E736F72204F4B2E20496E2D
:100E5E00696369616E646F206C656374757261732A
:100E6E002E2E2E0D0A0D0A0054656D702043203D66
:100E7E00200048756D2025203D20004661696C6577
:100E8E006420746F20726561642073656E736F7277
:100E9E000D0A004865617465722053746174653A79
:100EAE002000454E41424C45440D0A0044495341F1
:080EBE00424C45440D0A0000FE
:00000001FF
